:100000000C9462000C948A000C948A000C942C03CB
:100010000C942C030C942C030C948A000C948A00EE
:100020000C948A000C948A000C948A000C948A0028
:100030000C948A000C948A000C948A000C948A0018
:100040000C945D070C948A000C94FA020C94D40270
:100050000C948A000C948A000C948A000C948A00F8
:100060000C9436030C948A00000000002400270042
:100070002A000000000023002600290000000000E4
:10008000250028002B0004040404040404040202D4
:100090000202020203030303030301020408102007
:1000A0004080010204081020010204081020000012
:1000B0000008000201000003040700000000000027
:1000C0000000420A11241FBECFEFD8E0DEBFCDBF33
:1000D00012E0A0E0B1E0E8E0FAE102C005900D9284
:1000E000A83CB107D9F724E0A8ECB2E001C01D920A
:1000F000A033B207E1F710E0C2E6D0E004C02197D8
:10010000FE010E94F70CC136D107C9F70E94A7076C
:100110000C94020D0C94000008950895FC01538D79
:10012000448D252F30E0842F90E0821B930B5417D1
:1001300010F0CF96089501970895FC01918D828D5E
:10014000981761F0828DDF01A80FB11D5D968C912B
:10015000928D9F5F9F73928F90E008958FEF9FEF36
:100160000895FC01918D828D981731F0828DE80FF2
:10017000F11D858D90E008958FEF9FEF0895FC01AC
:10018000918D228D892F90E0805C9F4F821B910979
:100190008F73992708958EE793E00E94BF0021E0B6
:1001A000892B09F420E0822F0895FC01848DDF0162
:1001B000A80FB11DA35ABF4F2C91848D90E00196DA
:1001C0008F739927848FA689B7892C93A089B189C9
:1001D0008C91837080648C93938D848D981306C06A
:1001E0000288F389E02D80818F7D80830895EF92CE
:1001F000FF920F931F93CF93DF93EC0181E0888FE1
:100200009B8D8C8D981305C0E889F989808185FDC7
:1002100026C0F62E0B8D10E00F5F1F4F0F731127B6
:10022000E02E8C8DE8120CC00FB607FCFACFE889DF
:10023000F989808185FFF5CFCE010E94D500F1CFED
:100240008B8DFE01E80FF11DE35AFF4FF0829FB73F
:10025000F8940B8FEA89FB89808180620AC09FB77E
:10026000F894EE89FF896083E889F9898081837039
:10027000806480839FBF81E090E0DF91CF911F91E8
:100280000F91FF90EF900895CF93DF93EC01888D4D
:100290008823C9F0EA89FB89808185FD05C0A8898A
:1002A000B9898C9186FD0FC00FB607FCF5CF808110
:1002B00085FFF2CFA889B9898C9185FFEDCFCE015A
:1002C0000E94D500E7CFDF91CF91089580E090E0C4
:1002D000892B29F00E94CB0081110C940000089515
:1002E0000895E091120380911103E81730F4F0E0D3
:1002F000E95CFC4F808190E008958FEF9FEF0895B7
:100300009091120380911103981750F4E92FF0E0B7
:10031000E95CFC4F208130E09F5F9093120302C0A4
:100320002FEF3FEFC90108958091110390E02091D4
:100330001203821B91090895089580E090E00895CA
:1003400085ED8093BC008091BC0084FDFCCF1092B1
:100350007D0308954091E802262F30E0240F311DDF
:1003600021323105DCF420917D032430C9F4FC01F5
:1003700080E090E0861758F43091E8022191DC018A
:10038000A853BD4FA30FB11D2C930196F3CF8091BD
:10039000E802680F6093E80280E0089581E0089524
:1003A00082E00895CF92DF92EF92FF920F931F9316
:1003B000CF93DF937C01CB018A0120911303222389
:1003C00089F0EB016B01C40ED51ECC15DD0569F07B
:1003D0006991D701ED91FC910190F081E02DC70169
:1003E0000995F3CF642F0E94AA01C801DF91CF9134
:1003F0001F910F91FF90EF90DF90CF900895CF93D2
:10040000DF931F92CDB7DEB76983209113032223B8
:10041000D1F020913603203240F021E030E0FC01A1
:100420003383228380E090E015C080911403E82F8D
:10043000F0E0EB5EFC4F998190838F5F8093140313
:100440008093360305C061E0CE0101960E94AA01A7
:1004500081E090E00F90DF91CF910895CF92DF92ED
:10046000EF92FF920F931F93CF93DF93C82F8B01CF
:10047000EE24E394E09213038BE0F82EF092350320
:1004800010921403109236036C2F8BE194E00E94BB
:10049000FF0180E00E949D0541E061E08BE00E9449
:1004A0005B0510921203809311038BE194E00E948C
:1004B0008001D82FE0921303F092350310921403B9
:1004C000109236036C2F8BE194E00E94FF0180E0D4
:1004D0000E949D0561E06D0F613208F060E241E02D
:1004E0008BE00E945B051092120380931103C82FCA
:1004F000D0E07E0181E0E81AF1081E141F04A4F484
:100500008BE194E00E94800168018BE194E00E94FD
:100510008001F60181936F01CF01801B910B8E1535
:100520009F059CF3219702C0C0E0D0E0C00FD11F0F
:100530001882C701DF91CF911F910F91FF90EF902B
:10054000DF90CF900895CF93DF9391E090931303C2
:100550009BE0909335031092140310923603682F9A
:100560008BE194E00E94FF0180E00E949D0541E044
:1005700062E08BE00E945B051092120380931103EE
:100580008BE194E00E948001EC018BE194E00E94F9
:10059000800120E030E0382FC9018C2B9D2BDF91AA
:1005A000CF9108950E94FD0C1F920F920FB60F92EB
:1005B00011242F933F934F935F936F937F938F9368
:1005C0009F93AF93BF93EF93FF938EE793E00E94C7
:1005D000D500FF91EF91BF91AF919F918F917F9146
:1005E0006F915F914F913F912F910F900FBE0F90A0
:1005F0001F9018951F920F920FB60F9211242F93F0
:100600008F939F93EF93FF93E0918E03F0918F036D
:100610008081E0919403F091950382FD12C0908156
:10062000809197038F5F8F7320919803821751F009
:10063000E0919703F0E0E258FC4F958F8093970389
:1006400001C08081FF91EF919F918F912F910F9029
:100650000FBE0F901F9018951F920F920FB60F921A
:1006600011240F900FBE0F901F9018951F920F929C
:100670000FB60F9211242F933F934F935F936F9375
:100680007F938F939F93AF93BF93EF93FF9380914B
:10069000B900887F803609F49CC068F5883209F477
:1006A0005BC090F4803109F454C038F4882309F415
:1006B000F6C0883009F44DC0F6C0883109F44CC04A
:1006C000803209F45DC0EFC0803409F468C048F49A
:1006D000803309F455C0883309F0E5C080937B036B
:1006E000D8C0803509F44FC0883509F45DC088341E
:1006F00009F0D9C0D6C0883909F4C7C0A8F4883732
:1007000009F467C038F4883609F463C0803709F407
:1007100060C0C9C0883809F4B8C0803909F45FC026
:10072000803809F0C0C05BC0803B09F486C038F453
:10073000803A09F466C0883A09F47FC0B4C0803CAE
:1007400009F4A7C0883C09F4A4C0883B09F48AC016
:10075000AAC08091780310C090917A0380917903A8
:10076000981770F5E0917A0381E08E0F80937A03F9
:10077000F0E0E95AFC4F80818093BB0085EC86C095
:1007800080937B038EC0E0917A0381E08E0F80938B
:100790007A038091BB00F0E0E95AFC4F808390918E
:1007A0007A03809179036EC0E0917A0381E08E0F25
:1007B00080937A038091BB00F0E0E95AFC4F80837C
:1007C00080917C0381116DC081E08093770384EA7E
:1007D00061C083E080937D0310920A03CFCF8091A4
:1007E0000A03803208F051C0E0910A0381E08E0FC5
:1007F00080930A038091BB00F0E0E651FD4F8083B7
:10080000BDCF85EC8093BC0010927D0380910A03DC
:10081000803230F4E0910A03F0E0E651FD4F10829F
:1008200060910A0370E0E0910D03F0910E038AEEEF
:1008300092E0099510920A0336C084E080937D030C
:100840001092E9021092E802E0910F03F091100378
:1008500009958091E802811105C081E08093E8024A
:100860001092C802E091E90281E08E0F8093E902C4
:10087000F0E0E853FD4F80818093BB009091E90246
:100880008091E802981708F479CF85E88093BC003E
:100890000AC085EC8093BC0010927D0304C01092C6
:1008A0007B030E94A001FF91EF91BF91AF919F91B7
:1008B0008F917F916F915F914F913F912F910F9009
:1008C0000FBE0F901F9018953FB7F89480912C049D
:1008D00090912D04A0912E04B0912F0426B5A89BD1
:1008E00005C02F3F19F00196A11DB11D3FBFBA2FC2
:1008F000A92F982F8827820F911DA11DB11DBC0122
:10090000CD0142E0660F771F881F991F4A95D1F7E6
:100910000895CF92DF92EF92FF920F931F93CF93A0
:10092000DF936C017A018B01C0E0D0E0CE15DF05CA
:1009300081F0D8016D918D01D601ED91FC9101906E
:10094000F081E02DC6010995892B11F02196EECF9B
:100950007E01C701DF91CF911F910F91FF90EF9022
:10096000DF90CF900895009769F0FC01019000207E
:10097000E9F73197AF01481B590BBC018EE793E0B3
:100980000C94890480E090E0089589EB92E00C9447
:10099000B304CF93DF930E94B304EC010E94C5041B
:1009A0008C0F9D1FDF91CF9108958F929F92AF92F0
:1009B000BF920F931F93CF93DF93CDB7DEB7A1976D
:1009C0000FB6F894DEBF0FBECDBF19A2423008F4B7
:1009D0004AE08E010F5D1F4F842E912CA12CB12C6B
:1009E000A50194010E94B70CE62FB901CA0101507C
:1009F0001109EA3014F4E05D01C0E95CD801EC9320
:100A0000232B242B252B61F7C8010E94B304A19648
:100A10000FB6F894DEBF0FBECDBFDF91CF911F910F
:100A20000F91BF90AF909F908F900895CF92DF92DB
:100A3000EF92FF92CF93DF936115710559F4682F00
:100A40008EE793E0DF91CF91FF90EF90DF90CF9012
:100A50000C94F7006C01990FEE08FF086A307105DD
:100A6000E9F4F7FE19C06DE28EE793E00E94F7000B
:100A7000EC0166277727CB016C197D098E099F0948
:100A80004AE00E94D5048C0F9D1FDF91CF91FF900B
:100A9000EF90DF90CF9008954AE001C0462FC70144
:100AA000B601DF91CF91FF90EF90DF90CF900C9443
:100AB000D5040C94B30490917D039111FCCF91E087
:100AC00090937D0340937C032FEF20937B03109240
:100AD0007A03260F209379039093780390917803FB
:100AE000880F892B8093780380917703813061F49C
:100AF00010927703809178038093BB008091BC00B3
:100B000083FDF8CF85EC01C085EE8093BC00809119
:100B10007D038130E1F380917A03861710F46091B0
:100B20007A03A7E5B3E0E7E3F3E080E0861721F07E
:100B30009D9191938F5FFACF0895282F30913603BE
:100B4000313208F04AC080917D038111FCCF909131
:100B5000350342E040937D0320937C032FEF2093E5
:100B60007B0310927A0330937903E5E1F3E0A7E584
:100B7000B3E020E0321721F041914D932F5FFACF7F
:100B80001092780320917803990F922B9093780319
:100B900090917703913061F41092770390917803EC
:100BA0009093BB009091BC0093FDF8CF95EC01C0F1
:100BB00095EE9093BC0090917D039230E1F390917B
:100BC0007B039F3F79F080917B03803241F08091DD
:100BD0007B03803331F084E005C081E003C082E014
:100BE00001C083E010921403109236031092130395
:100BF00008958F929F92AF92BF92CF92DF92EF9221
:100C0000FF920F931F93CF93DF936B017C01142FFF
:100C10009B01AC010E94B20C882319F08CEB92E08E
:100C200027C046015701E894B7F82FEF3FEF4FE791
:100C30005FE7C501B4010E94B20C81110DC02FEF16
:100C40003FEF4FE75FE7C501B4010E94E80A1816BD
:100C50001CF480EC92E00CC02FEF3FEF4FE75FE415
:100C6000C701B6010E94400C181684F484EC92E08F
:100C7000DF91CF911F910F91FF90EF90DF90CF9078
:100C8000BF90AF909F908F900C94B3042FEF3FEFE5
:100C90004FE75FECC701B6010E94E80A87FDE6CF87
:100CA00020E030E0A901C701B6010E94E80A87FFF1
:100CB0000BC06DE28EE793E00E94F700EC01F7FABB
:100CC000F094F7F8F09402C0C0E0D0E000E060E0FB
:100CD00070E080E09FE3101741F020E030E040E258
:100CE00051E40E94ED0A0F5FF6CFA70196010E9422
:100CF0007C0A6B017C010E945F0B4B015C014AE0A6
:100D00000E94D504C80FD91F1123B9F1C501B40140
:100D10000E948E0B9B01AC01C701B6010E947B0AA9
:100D20006B017C016EE28EE793E00E94F700C80F32
:100D3000D91F20E030E040E251E4C701B6010E9433
:100D4000450C4B015C010E945F0B6B01E12CF12C07
:100D50004AE0C701B6010E94D504C80FD91FC701D8
:100D6000B6010E948E0B9B01AC01C501B4010E942B
:100D70007B0A6B017C011150E1F6CE01DF91CF912E
:100D80001F910F91FF90EF90DF90CF90BF90AF90A9
:100D90009F908F900895833081F028F4813099F0EE
:100DA0008230A1F008958730A9F08830B9F08430FE
:100DB000D1F4809180008F7D03C0809180008F7777
:100DC00080938000089584B58F7702C084B58F7DAD
:100DD00084BD08958091B0008F7703C08091B000EA
:100DE0008F7D8093B00008951F93CF93DF93282FBA
:100DF00030E0F901E255FF4F8491F901E656FF4FCB
:100E0000D491F901EA57FF4FC491CC23C1F0162FBA
:100E100081110E94CB06EC2FF0E0EE0FFF1FE4588B
:100E2000FF4FA591B4919FB7F894111104C08C9114
:100E3000D095D82302C0EC91DE2BDC939FBFDF91CD
:100E4000CF911F9108958F929F92AF92BF92CF92B0
:100E5000DF92EF92FF926B017C010E9464044B01D0
:100E60005C01C114D104E104F104F1F00E946404B6
:100E7000DC01CB0188199909AA09BB09883E934076
:100E8000A105B10570F321E0C21AD108E108F1080B
:100E900088EE880E83E0981EA11CB11CC114D104F9
:100EA000E104F10419F7DDCFFF90EF90DF90CF90D0
:100EB000BF90AF909F908F9008951F920F920FB6A2
:100EC0000F9211242F933F938F939F93AF93BF93D0
:100ED0008091280490912904A0912A04B0912B04B8
:100EE0003091270423E0230F2D3720F40196A11D14
:100EF000B11D05C026E8230F0296A11DB11D209348
:100F000027048093280490932904A0932A04B09383
:100F10002B0480912C0490912D04A0912E04B0916B
:100F20002F040196A11DB11D80932C0490932D04D4
:100F3000A0932E04B0932F04BF91AF919F918F91F6
:100F40003F912F910F900FBE0F901F901895CF9348
:100F5000DF93CDB7DEB7A1970FB6F894DEBF0FBE13
:100F6000CDBF789484B5826084BD84B5816084BD32
:100F700085B5826085BD85B5816085BD80916E0037
:100F8000816080936E001092810080918100826068
:100F900080938100809181008160809381008091A5
:100FA00080008160809380008091B1008460809394
:100FB000B1008091B00081608093B00080917A0090
:100FC000846080937A0080917A00826080937A00B6
:100FD00080917A00816080937A0080917A008068A5
:100FE00080937A001092C100E0918E03F0918F03FC
:100FF00082E08083E0918A03F0918B031082E0917C
:101000008C03F0918D0380E1808310929603E09130
:101010009203F091930386E08083E0919003F09136
:101020009103808180618083E0919003F09191032E
:10103000808188608083E0919003F09191038081AA
:1010400080688083E0919003F091910380818F7D8F
:10105000808365EAE62E60E0F62EF701449171E99F
:10106000C72E70E0D72EF60184918823C9F090E056
:10107000880F991FFC01E859FF4FA591B491FC011D
:10108000E458FF4F259134915FB7F8948C91942FD9
:10109000909598239C93F9018081842B80835FBF76
:1010A000E7EAF0E02491E3E9F0E08491882399F005
:1010B00090E0880F991FFC01E859FF4FA591B4916A
:1010C000FC01E458FF4F859194918FB7F894EC910F
:1010D000E22BEC938FBF1092120310921103109227
:1010E00014031092360310927D0381E080937C03F9
:1010F0001092770361E082E10E94F40661E083E1EF
:101100000E94F4068091B9008E7F8093B90080918F
:10111000B9008D7F8093B90088E48093B80085E49E
:101120008093BC008CE890E09093100380930F03B1
:101130008DE890E090930E0380930D0368EC70E0CF
:1011400080E090E00E94230784E291E00E94C904BD
:1011500080E491E00E94C9048AE291E00E9459056E
:101160008CE591E00E9459058DE391E00E94C9044D
:1011700081E691E00E94C9040E94C5048DE791E0D8
:101180000E9459056AE070E08BE090E00E9416052D
:101190000E94C5048FE891E00E94C9040E94C50422
:1011A00060ED77E080E090E00E94230799EB892EC4
:1011B00090E0992E1BE00E94C504F4018491F70190
:1011C0000491F6017490772071F081110E94CB0692
:1011D000E72DF0E0EE0FFF1FEE58FF4FA591B49101
:1011E0008C91082331F488E892E00E94C90460E001
:1011F00005C082EA92E00E94C90461E08DE00E948D
:10120000F406BE016F5F7F4F81E20E942E028BEADF
:1012100091E00E945905CE0101960E9459058BEB81
:1012200092E00E94C904BE016F5F7F4F80E20E947E
:101230002E0287EB91E00E945905CE0101960E9493
:1012400059058BEB92E00E94C9048BE10E94A30236
:10125000582E692E8BEC91E00E945905062D000F47
:10126000000BA62CA594B02E6AE070E0C501845452
:10127000984F0E9416058FED91E00E945905252D8B
:101280002171362D3171502F5171602F6170452FB2
:1012900070E080E090E004E00E94D90C6AE070E029
:1012A000822F220F990B0E9416058FED91E00E946C
:1012B0005905852D81716AE070E090E00E94160565
:1012C0000E94C50481EE91E00E9459058CE10E94C4
:1012D000A3026AE070E00E9416050E94C50481EF37
:1012E00091E00E94590586E10E94A30262E070E04D
:1012F0000E9416050E94C50484E092E00E945905F0
:101300008FE40E94A3026AE070E00E94160585E166
:1013100092E00E94C90488E192E00E94590581E0B0
:101320008093130310933503109214031092360325
:101330006EE08BE194E00E94FF0181E00E949D0538
:1013400041E061E08BE00E945B0510921203809304
:1013500011038BE194E00E948001082F81E00E943C
:101360009D05602F70E080E090E04AE00E94D50487
:1013700085E192E00E94C90487E292E00E9459054B
:1013800088E00E94A302BC01990F880B990B0E9470
:10139000900B2DEC3CEC4CEC5DE30E94450C23E300
:1013A00033E948E853E40E947B0A42E00E94F905D1
:1013B00085E392E00E94590587E10E94A3026AE05A
:1013C00070E00E9416058BEB92E00E94C90483E452
:1013D00092E00E94590589E00E94A302BC01990F86
:1013E000880B990B0E94900B2FE632E143E85AE3F9
:1013F0000E94450C42E00E94F9058DE492E00E94B3
:10140000C90480E592E00E9459058AE00E94A30287
:10141000BC01990F880B990B0E94900B2FE632E1CB
:1014200043E85AE30E94450C42E00E94F9058AE530
:1014300092E00E94C9048DE592E00E94590588E17E
:101440000E94A3026AE070E00E94160580E792E025
:101450000E94C90485E792E00E9459058FE00E942E
:10146000A3026AE070E00E94160580E792E00E9405
:10147000C90460ED77E080E090E00E9423070E94BD
:10148000660199CEEEE7F3E01382128288EE93E0D4
:10149000A0E0B0E084839583A683B78324E031E0A5
:1014A0003183208325EC30E03587248724EC30E03D
:1014B0003787268720EC30E0318B208B21EC30E021
:1014C000338B228B22EC30E0358B248B26EC30E002
:1014D000378B268B118E128E138E148EEBE1F4E077
:1014E0001382128284839583A683B78386E191E079
:1014F0009183808308955058BB27AA270E94930A9E
:101500000C94060C0E94F80B38F00E94FF0B20F0A0
:1015100039F49F3F19F426F40C94F50B0EF4E09582
:10152000E7FB0C94EF0BE92F0E94170C58F3BA1746
:10153000620773078407950720F079F4A6F50C94E9
:10154000390C0EF4E0950B2EBA2FA02D0B01B9012A
:1015500090010C01CA01A0011124FF27591B99F029
:10156000593F50F4503E68F11A16F040A22F232F35
:10157000342F4427585FF3CF469537952795A79585
:10158000F0405395C9F77EF41F16BA0B620B730B2C
:10159000840BBAF09150A1F0FF0FBB1F661F771F9D
:1015A000881FC2F70EC0BA0F621F731F841F48F452
:1015B000879577956795B795F7959E3F08F0B0CFDB
:1015C0009395880F08F09927EE0F979587950895C2
:1015D0000E94CB0B08F481E008950E94010B0C944B
:1015E000060C0E94FF0B58F00E94F80B40F029F403
:1015F0005F3F29F00C94EF0B51110C943A0C0C94B2
:10160000F50B0E94170C68F39923B1F3552391F35E
:10161000951B550BBB27AA2762177307840738F061
:101620009F5F5F4F220F331F441FAA1FA9F335D0BE
:101630000E2E3AF0E0E832D091505040E695001C72
:10164000CAF72BD0FE2F29D0660F771F881FBB1F2C
:10165000261737074807AB07B0E809F0BB0B802D0A
:10166000BF01FF2793585F4F3AF09E3F510578F036
:101670000C94EF0B0C943A0C5F3FE4F3983ED4F3D8
:10168000869577956795B795F7959F5FC9F7880F0A
:10169000911D9695879597F90895E1E0660F771F5C
:1016A000881FBB1F621773078407BA0720F0621BED
:1016B000730B840BBA0BEE1F88F7E09508950E9418
:1016C0001F0C88F09F5798F0B92F9927B751B0F0A9
:1016D000E1F0660F771F881F991F1AF0BA95C9F7B6
:1016E00014C0B13091F00E94390CB1E008950C940F
:1016F000390C672F782F8827B85F39F0B93FCCF3C2
:10170000869577956795B395D9F73EF49095809532
:10171000709561957F4F8F4F9F4F0895E89409C052
:1017200097FB3EF490958095709561957F4F8F4F14
:101730009F4F9923A9F0F92F96E9BB279395F6952A
:10174000879577956795B795F111F8CFFAF4BB0FA8
:1017500011F460FF1BC06F5F7F4F8F4F9F4F16C00C
:10176000882311F096E911C0772321F09EE8872F96
:10177000762F05C0662371F096E8862F70E060E052
:101780002AF09A95660F771F881FDAF7880F9695CB
:10179000879597F90895990F0008550FAA0BE0E86F
:1017A000FEEF16161706E807F907C0F01216130623
:1017B000E407F50798F0621B730B840B950B39F463
:1017C0000A2661F0232B242B252B21F408950A26C9
:1017D00009F4A140A6958FEF811D811D089597F909
:1017E0009F6780E870E060E008959FEF80EC0895C7
:1017F00000240A94161617061806090608950024F0
:101800000A9412161306140605060895092E039469
:10181000000C11F4882352F0BB0F40F4BF2B11F4DD
:1018200060FF04C06F5F7F4F8F4F9F4F089557FD3C
:101830009058440F551F59F05F3F71F04795880F3E
:1018400097FB991F61F09F3F79F0879508951216D5
:1018500013061406551FF2CF4695F1DF08C0161681
:1018600017061806991FF1CF869571056105089432
:101870000895E894BB2766277727CB0197F9089549
:101880000E94CB0B08F48FEF08950E94580C0C9423
:10189000060C0E94F80B38F00E94FF0B20F09523F5
:1018A00011F00C94EF0B0C94F50B11240C943A0CE2
:1018B0000E94170C70F3959FC1F3950F50E0551FD0
:1018C000629FF001729FBB27F00DB11D639FAA2795
:1018D000F00DB11DAA1F649F6627B00DA11D661FE4
:1018E000829F2227B00DA11D621F739FB00DA11D05
:1018F000621F839FA00D611D221F749F3327A00DBF
:10190000611D231F849F600D211D822F762F6A2F5A
:1019100011249F5750409AF0F1F088234AF0EE0FBF
:10192000FF1FBB1F661F771F881F91505040A9F7EC
:101930009E3F510580F00C94EF0B0C943A0C5F3FE6
:10194000E4F3983ED4F3869577956795B795F79528
:10195000E7959F5FC1F7FE2B880F911D96958795A0
:1019600097F908950E94CB0B880B990B0895A1E27B
:101970001A2EAA1BBB1BFD010DC0AA1FBB1FEE1F09
:10198000FF1FA217B307E407F50720F0A21BB30B54
:10199000E40BF50B661F771F881F991F1A9469F7D0
:1019A00060957095809590959B01AC01BD01CF012C
:1019B000089597FB10F8169400080F93083098F0DC
:1019C0000850232F342F452F562F672F782F892F1C
:1019D000902DF4CF059497958795779567955795B2
:1019E0004795379527950A95AAF70F910895EE0F19
:1019F000FF1F0590F491E02D099481E090E0F894A8
:081A00000C94020DF894FFCFD5
:101A080000000000F70089048E004401BF009D001B
:101A1800B10000000000FF01D2019D017001940196
:101A2800800171013D3D3D3D3D3D3D3D3D3D3D3DDF
:101A38003D3D3D3D3D3D3D3D3D3D3D3D3D3D3D000B
:101A48002020204D6163426F6F6B20426174746582
:101A5800727920526561646572202000312E303120
:101A68000032303138202D2042792056616E64656D
:101A780072736F6E2050696D656E746100445132E7
:101A8800305A383020416464726573733A20002DEF
:101A98002D2D2D2D2D2D2D2D2D2D2D2D2D2D2D2D6E
:101AA8002D2D2D2D2D2D2D2D2D2D00426174204DE8
:101AB8006F64656C3A20004D616E7566616374757C
:101AC800726572204E616D653A200044617465202C
:101AD8005B595959592E4D4D2E44445D3A20002EDC
:101AE8000053657269616C204E756D6265723A20AB
:101AF800004261742053746174757320466C616789
:101B0800733A200042617474657279204865616C8B
:101B180074683A20002025004162736F6C75746503
:101B280020534F433A200054656D70657261747597
:101B380072653A20004379636C6520436F756E7453
:101B48003A2000566F6C746167653A200020560091
:101B580043757272656E743A2000204100446573C3
:101B680069676E204361706163697474793A200013
:101B7800206D41480052656D61696E204361706156
:101B880063697474793A20004261747465727920CB
:101B9800436F6E6E6563746564205B4552524F52A5
:101BA8005D004261747465727920436F6E6E65637F
:101BB800746564205B4F4B5D000D0A006E616E001A
:081BC800696E66006F7666008D
:00000001FF
